:03000000020800F3
:0C080000787FE4F6D8FD758108020847F7
:0308CD000108FE21
:1008B200850890AF087801EF08800123D8FDF5087C
:0B08C200F5907FF47E0112088C80E8A6
:10088C00E4FDFCC3ED9FEE6480F8EC648098501599
:10089C00E4FBFA0BBB00010AEB64714A70F50DBD69
:0508AC0000010C80DEDC
:0108B1002224
:10080C000208B2E493A3F8E493A34003F68001F248
:10081C0008DFF48029E493A3F85407240CC8C333ED
:10082C00C4540F4420C8834004F456800146F6DFBC
:10083C00E4800B01020408102040809008CDE47E77
:10084C00019360BCA3FF543F30E509541FFEE493B1
:10085C00A360010ECF54C025E060A840B8E493A378
:10086C00FAE493A3F8E493A3C8C582C8CAC583CAA3
:10087C00F0A3C8C582C8CAC583CADFE9DEE780BE5B
:0108D0000027
:00000001FF
