:03000000020800F3
:0C080000787FE4F6D8FD758108020847F7
:0308C50001087FA8
:10088C00EF1FAA0670011E4A6013E4FCFDC3ED9431
:0D089C0071EC940050EA0DBD00010C80F0DD
:0108A900222C
:1008AA00850890AF087801EF08800103D8FDF508A4
:0B08BA00F5907FF47E0112088C80E8AE
:10080C000208AAE493A3F8E493A34003F68001F250
:10081C0008DFF48029E493A3F85407240CC8C333ED
:10082C00C4540F4420C8834004F456800146F6DFBC
:10083C00E4800B01020408102040809008C5E47E7F
:10084C00019360BCA3FF543F30E509541FFEE493B1
:10085C00A360010ECF54C025E060A840B8E493A378
:10086C00FAE493A3F8E493A3C8C582C8CAC583CAA3
:10087C00F0A3C8C582C8CAC583CADFE9DEE780BE5B
:0108C800002F
:00000001FF
