:03000000020800F3
:0C080000787FE4F6D8FD758109020847F6
:1008F5003F065B4F666D7D077F6F777C395E79714B
:03090500738000FC
:030911000109FEDB
:1008BA00E4FDFCC3ED9FEC9E5015E4FBFA0BBB0074
:0F08CA00010AEB64714A70F50DBD00010C80E46A
:0108D90022FC
:09090800B2A37FE87E030208BAE5
:1008DA00850990AF097801EF08800123D8FDF50951
:0B08EA00F5907FF47E011208BA80E850
:10088C00D2A7E4F580C2A7E4F508D2A6E508900843
:10089C00F593F5807FF47E011208BAC2A60508E52F
:0E08AC0008C3941340E41209081208DA80D938
:10080C0002088CE493A3F8E493A34003F68001F26E
:10081C0008DFF48029E493A3F85407240CC8C333ED
:10082C00C4540F4420C8834004F456800146F6DFBC
:10083C00E4800B0102040810204080900911E47E32
:10084C00019360BCA3FF543F30E509541FFEE493B1
:10085C00A360010ECF54C025E060A840B8E493A378
:10086C00FAE493A3F8E493A3C8C582C8CAC583CAA3
:10087C00F0A3C8C582C8CAC583CADFE9DEE780BE5B
:0109140000E2
:00000001FF
