:03000000020800F3
:0C080000787FE4F6D8FD758132020847CD
:0F0B8C00C0F9A4B0999282F88090FF010204088A
:0C0B9B0001250A01310A0226FFFFC100FB
:100B7A00AD071FED600BE4FEEEC3947150F20E80D8
:010B8A00F773
:010B8B002247
:100A1B00E52F75F00A84F522700375220AE52F7510
:100A2B00F00A8485F021E53275F00A84F524700311
:0D0A3B0075240AE53275F00A8485F0232247
:100A4800E53175F00A84F522700375220AE53175DF
:100A5800F00A8485F021E52575F00A84F5247003F1
:0D0A680075240AE52575F00A8485F0232227
:10092800E52745267012E5296401600C0531E5319B
:10093800B4641D7531058018E527640145267010DB
:10094800E5296401600A0525E525B46403752505D4
:10095800E527F47003E526F46009E52964016003DE
:04096800120A482205
:10096C00E52745267012E5296401600C1531E53147
:10097C00B4041D7531638018E52764014526701099
:10098C00E5296401600A1525E525B4040375256382
:10099C00E527F47003E526F46007E5297003120AD5
:0209AC004822DF
:1008E2000527E52770020526C39402E52664809455
:1008F20080400674FFF526F527E527B4FF1EE5269E
:10090200B4FF19E529B40103E4F529E53124FBF527
:100912002F853132D28C7580EB020A1BE5296401E6
:060922006003120A4822E6
:1009E50020B00E7F0A120B7A20B00612092830B00B
:1009F500FD20B10E7F0A120B7A20B10612096C3068
:100A0500B1FD20B6107F0A120B7A20B608C28C12EF
:060A150008E230B6FD22EC
:10088C001532152F200027E52F7048E52B700C75BD
:10089C002F05752B01D284C2838038E4F52BD2004E
:1008AC00E52524FBF53285252F7580DD8025E53285
:1008BC007021E52D700C753205752D01D281C28029
:1008CC008011E4F52DC200853132E53124FBF52F82
:0608DC007580EB020A1B0F
:100AF000E4FCE4F5907F02120B7A74212CF8E69066
:100B00000B8C93F5A0EC900B9793F5907F04120B50
:050B10007A0CBC04DDBD
:010B150022BD
:100A7500E52BB40104B2838007E52DB40102B280F1
:100A8500E529B40115B283B2800530E530C3940C75
:0B0A95004008E4F530C28C7580DB22C5
:1009AE00758961758C3C758AB0758DFF758BFFD21C
:1009BE00A9D2ABD2A8D288D2AAD28AD28CD28ED2C7
:1009CE00AFE4F52BF52DC2007580EBE53124FBF578
:0709DE002F853132020A1BD4
:03000B00020AA046
:100AA000C0E0C0D0758C3C758AB00528052EE52EB7
:100AB000B40A06752E00752C01E528B414067528B5
:090AC00000752A01D0D0D0E0320B
:03000300020B3CB1
:0B0B3C00C0E0C0D075D000C000C007B2
:0F0B4700C28C7F047821740AF608DFFC7580DD0C
:090B5600D007D000D0D0D0E0326D
:03001300020B5F7E
:070B5F00C0E0C0D075D00812
:0F0B6600C28C7F047821740AF608DFFC7580EBDF
:050B7500D0D0D0E032F9
:03001B00020B16BF
:0B0B1600C0E0C0D075D000C000C007D8
:100B2100D28C7529017F047821740AF608DFFC75DF
:020B310080F64C
:090B3300D007D000D0D0D0E03290
:100AC9001209AE1209E5E52AB4010CE529640160B1
:100AD9000612088CE4F52AE52CB40106120A75E41D
:070AE900F52C120AF080DC7D
:10080C00020AC9E493A3F8E493A34003F68001F22F
:10081C0008DFF48029E493A3F85407240CC8C333ED
:10082C00C4540F4420C8834004F456800146F6DFBC
:10083C00E4800B0102040810204080900B9BE47EA6
:10084C00019360BCA3FF543F30E509541FFEE493B1
:10085C00A360010ECF54C025E060A840B8E493A378
:10086C00FAE493A3F8E493A3C8C582C8CAC583CAA3
:10087C00F0A3C8C582C8CAC583CADFE9DEE780BE5B
:010BA700004D
:00000001FF
