:0300000002010BEF
:0C010B00787FE4F6D8FD75810B020152EC
:0601B7000108000109FE31
:10000300E508B40800400302010A900014F8282808
:100013007302002C02004B02006A02008302009E5E
:100023000200B40200D20200FA8509907FC87E0064
:10003300120197E50925E0F5090509E509647F60E3
:100043000302010A750801228509907FC87E001208
:100053000197E509C313F5092480F50964FE6003DC
:1000630002010A750802228509907FC87E001201E9
:1000730097E50925E0F509600302010A75080322E3
:100083008509907FC87E00120197E50925E0F509EF
:100093000509E509F47070750804228509907FC885
:1000A3007E00120197E509C313F509705A75080517
:1000B300228509907FC87E00120197E509C313F5D5
:1000C300092480F509F4703F7508067509AA22050D
:1000D3000BE50B7002050A850990E509B4AA0575BD
:1000E300095580037509AAE50B6407450A7018F5DD
:1000F3000AF50B750807228509907FC87E00120157
:07010300977509FEE4F50801
:01010A0022D2
:0501BE0012000380FBAC
:10019700E4FDFCD3ED9FEC9E5015E4FAFB0BBB008E
:0F01A700010AEB64724A70F50DBD00010C80E493
:0101B6002226
:100117000201BEE493A3F8E493A34003F68001F23F
:1001270008DFF48029E493A3F85407240CC8C333E9
:10013700C4540F4420C8834004F456800146F6DFB8
:10014700E4800B01020408102040809001B7E47E90
:10015700019360BCA3FF543F30E509541FFEE493AD
:10016700A360010ECF54C025E060A840B8E493A374
:10017700FAE493A3F8E493A3C8C582C8CAC583CA9F
:10018700F0A3C8C582C8CAC583CADFE9DEE780BE57
:0101BD000041
:00000001FF
